{
  "contractName": "Election",
  "abi": [
    {
      "anonymous": false,
      "inputs": [
        {
          "indexed": false,
          "internalType": "uint256",
          "name": "Candidate_ID",
          "type": "uint256"
        },
        {
          "indexed": false,
          "internalType": "string",
          "name": "Candidate_Name",
          "type": "string"
        }
      ],
      "name": "Candidate_Register",
      "type": "event"
    },
    {
      "anonymous": false,
      "inputs": [
        {
          "indexed": false,
          "internalType": "string",
          "name": "Candidate_Name",
          "type": "string"
        },
        {
          "indexed": false,
          "internalType": "uint256",
          "name": "votes",
          "type": "uint256"
        }
      ],
      "name": "current_winner",
      "type": "event"
    },
    {
      "constant": true,
      "inputs": [],
      "name": "Cand_id",
      "outputs": [
        {
          "internalType": "uint256",
          "name": "",
          "type": "uint256"
        }
      ],
      "payable": false,
      "stateMutability": "view",
      "type": "function"
    },
    {
      "constant": true,
      "inputs": [
        {
          "internalType": "address",
          "name": "",
          "type": "address"
        }
      ],
      "name": "Candidate_Exists",
      "outputs": [
        {
          "internalType": "bool",
          "name": "",
          "type": "bool"
        }
      ],
      "payable": false,
      "stateMutability": "view",
      "type": "function"
    },
    {
      "constant": true,
      "inputs": [
        {
          "internalType": "address",
          "name": "",
          "type": "address"
        }
      ],
      "name": "VoterList",
      "outputs": [
        {
          "internalType": "bool",
          "name": "",
          "type": "bool"
        }
      ],
      "payable": false,
      "stateMutability": "view",
      "type": "function"
    },
    {
      "constant": true,
      "inputs": [
        {
          "internalType": "address",
          "name": "",
          "type": "address"
        }
      ],
      "name": "Votes_Casted",
      "outputs": [
        {
          "internalType": "bool",
          "name": "",
          "type": "bool"
        }
      ],
      "payable": false,
      "stateMutability": "view",
      "type": "function"
    },
    {
      "constant": true,
      "inputs": [
        {
          "internalType": "uint256",
          "name": "",
          "type": "uint256"
        }
      ],
      "name": "candidates",
      "outputs": [
        {
          "internalType": "string",
          "name": "name",
          "type": "string"
        },
        {
          "internalType": "uint256",
          "name": "votes",
          "type": "uint256"
        }
      ],
      "payable": false,
      "stateMutability": "view",
      "type": "function"
    },
    {
      "constant": true,
      "inputs": [],
      "name": "contractOwner",
      "outputs": [
        {
          "internalType": "address",
          "name": "",
          "type": "address"
        }
      ],
      "payable": false,
      "stateMutability": "view",
      "type": "function"
    },
    {
      "constant": false,
      "inputs": [
        {
          "internalType": "address",
          "name": "given_address",
          "type": "address"
        }
      ],
      "name": "Voter_Registration",
      "outputs": [],
      "payable": false,
      "stateMutability": "nonpayable",
      "type": "function"
    },
    {
      "constant": false,
      "inputs": [
        {
          "internalType": "string",
          "name": "Name",
          "type": "string"
        }
      ],
      "name": "Candidate_Registration",
      "outputs": [],
      "payable": false,
      "stateMutability": "nonpayable",
      "type": "function"
    },
    {
      "constant": false,
      "inputs": [
        {
          "internalType": "uint256",
          "name": "Vote",
          "type": "uint256"
        }
      ],
      "name": "Cast_Vote",
      "outputs": [],
      "payable": false,
      "stateMutability": "nonpayable",
      "type": "function"
    },
    {
      "constant": false,
      "inputs": [],
      "name": "Current_Leader",
      "outputs": [],
      "payable": false,
      "stateMutability": "nonpayable",
      "type": "function"
    }
  ],
  "bytecode": "0x6080604052336000806101000a81548173ffffffffffffffffffffffffffffffffffffffff021916908373ffffffffffffffffffffffffffffffffffffffff160217905550600060055534801561005557600080fd5b50610dac806100656000396000f3fe608060405234801561001057600080fd5b506004361061009d5760003560e01c806365813b041161006657806365813b04146102925780637e836c4d146102d65780637f24d63a146102f4578063bf986968146102fe578063ce606ee0146103b95761009d565b806298a51a146100a25780630708f842146100fe57806323f8249e1461012c5780633477ee2e1461018857806357b1b24014610236575b600080fd5b6100e4600480360360208110156100b857600080fd5b81019080803573ffffffffffffffffffffffffffffffffffffffff169060200190929190505050610403565b604051808215151515815260200191505060405180910390f35b61012a6004803603602081101561011457600080fd5b8101908080359060200190929190505050610423565b005b61016e6004803603602081101561014257600080fd5b81019080803573ffffffffffffffffffffffffffffffffffffffff169060200190929190505050610577565b604051808215151515815260200191505060405180910390f35b6101b46004803603602081101561019e57600080fd5b8101908080359060200190929190505050610597565b6040518080602001838152602001828103825284818151815260200191508051906020019080838360005b838110156101fa5780820151818401526020810190506101df565b50505050905090810190601f1680156102275780820380516001836020036101000a031916815260200191505b50935050505060405180910390f35b6102786004803603602081101561024c57600080fd5b81019080803573ffffffffffffffffffffffffffffffffffffffff169060200190929190505050610660565b604051808215151515815260200191505060405180910390f35b6102d4600480360360208110156102a857600080fd5b81019080803573ffffffffffffffffffffffffffffffffffffffff169060200190929190505050610680565b005b6102de610849565b6040518082815260200191505060405180910390f35b6102fc61084f565b005b6103b76004803603602081101561031457600080fd5b810190808035906020019064010000000081111561033157600080fd5b82018360208201111561034357600080fd5b8035906020019184600183028401116401000000008311171561036557600080fd5b91908080601f016020809104026020016040519081016040528093929190818152602001838380828437600081840152601f19601f820116905080830192505050505050509192919290505050610a32565b005b6103c1610c5d565b604051808273ffffffffffffffffffffffffffffffffffffffff1673ffffffffffffffffffffffffffffffffffffffff16815260200191505060405180910390f35b60016020528060005260406000206000915054906101000a900460ff1681565b3360011515600160008373ffffffffffffffffffffffffffffffffffffffff1673ffffffffffffffffffffffffffffffffffffffff16815260200190815260200160002060009054906101000a900460ff161515146104ea576040517f08c379a000000000000000000000000000000000000000000000000000000000815260040180806020018281038252601c8152602001807f566f74652068617320616c7265616479206265656e206361737465640000000081525060200191505060405180910390fd5b600460018303815481106104fa57fe5b9060005260206000209060020201600101600081548092919060010191905055506000600160003373ffffffffffffffffffffffffffffffffffffffff1673ffffffffffffffffffffffffffffffffffffffff16815260200190815260200160002060006101000a81548160ff0219169083151502179055505050565b60036020528060005260406000206000915054906101000a900460ff1681565b600481815481106105a457fe5b9060005260206000209060020201600091509050806000018054600181600116156101000203166002900480601f0160208091040260200160405190810160405280929190818152602001828054600181600116156101000203166002900480156106505780601f1061062557610100808354040283529160200191610650565b820191906000526020600020905b81548152906001019060200180831161063357829003601f168201915b5050505050908060010154905082565b60026020528060005260406000206000915054906101000a900460ff1681565b336000809054906101000a900473ffffffffffffffffffffffffffffffffffffffff1673ffffffffffffffffffffffffffffffffffffffff168173ffffffffffffffffffffffffffffffffffffffff1614610726576040517f08c379a000000000000000000000000000000000000000000000000000000000815260040180806020018281038252602d815260200180610d28602d913960400191505060405180910390fd5b8160001515600160008373ffffffffffffffffffffffffffffffffffffffff1673ffffffffffffffffffffffffffffffffffffffff16815260200190815260200160002060009054906101000a900460ff161515146107ed576040517f08c379a000000000000000000000000000000000000000000000000000000000815260040180806020018281038252601f8152602001807f54686520566f74657220697320616c726561647920526567697374657265640081525060200191505060405180910390fd5b60018060008573ffffffffffffffffffffffffffffffffffffffff1673ffffffffffffffffffffffffffffffffffffffff16815260200190815260200160002060006101000a81548160ff021916908315150217905550505050565b60055481565b6000809050606060405180602001604052806000815250905060008090505b60048054905081101561098957826004828154811061088957fe5b906000526020600020906002020160010154111561097c57600481815481106108ae57fe5b9060005260206000209060020201600101549250600481815481106108cf57fe5b90600052602060002090600202016000018054600181600116156101000203166002900480601f0160208091040260200160405190810160405280929190818152602001828054600181600116156101000203166002900480156109745780601f1061094957610100808354040283529160200191610974565b820191906000526020600020905b81548152906001019060200180831161095757829003601f168201915b505050505091505b808060010191505061086e565b507f4690ab23de4525bdbe0176ff90df0a8a8b74258926be1c67dfc797239996792c81836040518080602001838152602001828103825284818151815260200191508051906020019080838360005b838110156109f35780820151818401526020810190506109d8565b50505050905090810190601f168015610a205780820380516001836020036101000a031916815260200191505b50935050505060405180910390a15050565b3360001515600260008373ffffffffffffffffffffffffffffffffffffffff1673ffffffffffffffffffffffffffffffffffffffff16815260200190815260200160002060009054906101000a900460ff16151514610adc576040517f08c379a0000000000000000000000000000000000000000000000000000000008152600401808060200182810382526023815260200180610d556023913960400191505060405180910390fd5b600460405180604001604052808481526020016000815250908060018154018082558091505090600182039060005260206000209060020201600090919290919091506000820151816000019080519060200190610b3b929190610c82565b50602082015181600101555050506005600081548092919060010191905055506001600260003373ffffffffffffffffffffffffffffffffffffffff1673ffffffffffffffffffffffffffffffffffffffff16815260200190815260200160002060006101000a81548160ff0219169083151502179055507fd90617ecd2a42f32adc5d1bb03ca711aae2963cd85fd0869b7841ec423a12cc9600554836040518083815260200180602001828103825283818151815260200191508051906020019080838360005b83811015610c1e578082015181840152602081019050610c03565b50505050905090810190601f168015610c4b5780820380516001836020036101000a031916815260200191505b50935050505060405180910390a15050565b6000809054906101000a900473ffffffffffffffffffffffffffffffffffffffff1681565b828054600181600116156101000203166002900490600052602060002090601f016020900481019282601f10610cc357805160ff1916838001178555610cf1565b82800160010185558215610cf1579182015b82811115610cf0578251825591602001919060010190610cd5565b5b509050610cfe9190610d02565b5090565b610d2491905b80821115610d20576000816000905550600101610d08565b5090565b9056fe4163636f756e74206e6f7420617574686f72697a656420746f20706572666f726d207468697320616374696f6e5468652063616e64696461746520697320616c72656164792052656769737465726564a265627a7a72315820c860a1b75a6a476decf3df3f601a3f42bea3d4c11857ec43d8ae65b1d807689564736f6c63430005100032",
  "source": "\npragma solidity ^0.5.16;\n\ncontract Election{\n    event Candidate_Register(uint Candidate_ID, string  Candidate_Name);\n    event current_winner(string Candidate_Name, uint votes);\n    \n\n    struct Candidate{\n        string name;\n        uint votes;\n    }\n    \n    \n    address public contractOwner = msg.sender;\n    mapping(address => bool) public VoterList;\n    mapping(address => bool) public Candidate_Exists;\n    mapping(address => bool) public Votes_Casted;\n    Candidate[] public candidates;\n    uint public Cand_id = 0;\n    \n    // A constraint to Check if the Contract Owner is Invoking the function\n    modifier onlyOwner(address add){\n        require(add==contractOwner, \"Account not authorized to perform this action\");\n        _;\n    }\n    \n    //A constraint to only register one account only once\n    modifier alreadyRegisteredVoter(address add){\n        require(VoterList[add] == false, \"The Voter is already Registered\");\n        _;\n    }\n    \n    //Check if the candidate exists\n    modifier alreadyRegisteredCandidate(address add){\n        require(Candidate_Exists[add] == false, \"The candidate is already Registered\");\n        _;\n    }\n    \n    \n    \n    // A constraint to prevent double Voting\n    modifier AlreadyVoted(address add){\n        require(VoterList[add] == true, \"Vote has already been casted\");\n        _;\n    }\n    \n    \n    \n    // Registration of Voters. Can be done only by contract Owner\n    \n    function Voter_Registration(address given_address) public onlyOwner(msg.sender) alreadyRegisteredVoter(given_address){\n        VoterList[given_address] = true;\n    }\n    \n    \n    \n    \n    // Registration of Candidates. Self registration, can be done by anyone.\n    \n    function Candidate_Registration(string memory Name) public alreadyRegisteredCandidate(msg.sender){\n        candidates.push(Candidate(Name, 0));\n        Cand_id++;\n        Candidate_Exists[msg.sender] = true;\n        emit Candidate_Register(Cand_id, Name);\n    }\n\n\n\n    // Cast Vote, can be invoked by voters.\n    \n    function Cast_Vote(uint Vote) public AlreadyVoted(msg.sender){\n        candidates[Vote-1].votes++;\n        VoterList[msg.sender] = false;\n    }\n    \n    \n    \n    // Current Winners\n    \n    function Current_Leader() public{\n        uint max_votes = 0;\n        string memory winner = \"\";\n        for(uint i=0; i<candidates.length;i++){\n            if (candidates[i].votes > max_votes){\n                max_votes = candidates[i].votes;\n                winner = candidates[i].name;\n            }\n        }\n        \n        emit current_winner(winner, max_votes);\n    }\n    \n}",
  "sourcePath": "/home/siddhu/Desktop/Extra Gits/election-dapp/contracts/Election.sol",
  "compiler": {
    "name": "solc",
    "version": "0.5.16+commit.9c3226ce.Emscripten.clang"
  },
  "schemaVersion": "3.4.3",
  "updatedAt": "2021-10-17T11:59:11.546Z",
  "networkType": "ethereum",
  "devdoc": {
    "methods": {}
  },
  "userdoc": {
    "methods": {}
  }
}